{
  "_format": "hh-sol-artifact-1",
  "contractName": "PasswordVault",
  "sourceName": "contracts/PasswordVault.sol",
  "abi": [
    {
      "anonymous": false,
      "inputs": [
        {
          "indexed": true,
          "internalType": "address",
          "name": "user",
          "type": "address"
        },
        {
          "indexed": false,
          "internalType": "uint256",
          "name": "timestamp",
          "type": "uint256"
        }
      ],
      "name": "PasswordStored",
      "type": "event"
    },
    {
      "inputs": [
        {
          "internalType": "address",
          "name": "user",
          "type": "address"
        }
      ],
      "name": "get",
      "outputs": [
        {
          "internalType": "string",
          "name": "",
          "type": "string"
        }
      ],
      "stateMutability": "view",
      "type": "function"
    },
    {
      "inputs": [],
      "name": "getTotalPasswordCount",
      "outputs": [
        {
          "internalType": "uint256",
          "name": "",
          "type": "uint256"
        }
      ],
      "stateMutability": "view",
      "type": "function"
    },
    {
      "inputs": [
        {
          "internalType": "address",
          "name": "",
          "type": "address"
        }
      ],
      "name": "passwords",
      "outputs": [
        {
          "internalType": "string",
          "name": "",
          "type": "string"
        }
      ],
      "stateMutability": "view",
      "type": "function"
    },
    {
      "inputs": [
        {
          "internalType": "string",
          "name": "encryptedPassword",
          "type": "string"
        }
      ],
      "name": "store",
      "outputs": [],
      "stateMutability": "nonpayable",
      "type": "function"
    }
  ],
  "bytecode": "0x608060405234801561001057600080fd5b5061090d806100206000396000f3fe608060405234801561001057600080fd5b506004361061004c5760003560e01c8063131a068014610051578063ac3204b51461006d578063c2bc2efc1461008b578063da0d37e6146100bb575b600080fd5b61006b6004803603810190610066919061038c565b6100eb565b005b6100756101a3565b60405161008291906103f2565b60405180910390f35b6100a560048036038101906100a0919061046b565b6101ac565b6040516100b29190610528565b60405180910390f35b6100d560048036038101906100d0919061046b565b61027d565b6040516100e29190610528565b60405180910390f35b8181600160003373ffffffffffffffffffffffffffffffffffffffff1673ffffffffffffffffffffffffffffffffffffffff1681526020019081526020016000209182610139929190610790565b5060008081548092919061014c9061088f565b91905055503373ffffffffffffffffffffffffffffffffffffffff167fc6132420d249e39a51c9571c1957b769702c010ccb4a9ee808c2bbb974a7516d4260405161019791906103f2565b60405180910390a25050565b60008054905090565b6060600160008373ffffffffffffffffffffffffffffffffffffffff1673ffffffffffffffffffffffffffffffffffffffff16815260200190815260200160002080546101f8906105b3565b80601f0160208091040260200160405190810160405280929190818152602001828054610224906105b3565b80156102715780601f1061024657610100808354040283529160200191610271565b820191906000526020600020905b81548152906001019060200180831161025457829003601f168201915b50505050509050919050565b6001602052806000526040600020600091509050805461029c906105b3565b80601f01602080910402602001604051908101604052809291908181526020018280546102c8906105b3565b80156103155780601f106102ea57610100808354040283529160200191610315565b820191906000526020600020905b8154815290600101906020018083116102f857829003601f168201915b505050505081565b600080fd5b600080fd5b600080fd5b600080fd5b600080fd5b60008083601f84011261034c5761034b610327565b5b8235905067ffffffffffffffff8111156103695761036861032c565b5b60208301915083600182028301111561038557610384610331565b5b9250929050565b600080602083850312156103a3576103a261031d565b5b600083013567ffffffffffffffff8111156103c1576103c0610322565b5b6103cd85828601610336565b92509250509250929050565b6000819050919050565b6103ec816103d9565b82525050565b600060208201905061040760008301846103e3565b92915050565b600073ffffffffffffffffffffffffffffffffffffffff82169050919050565b60006104388261040d565b9050919050565b6104488161042d565b811461045357600080fd5b50565b6000813590506104658161043f565b92915050565b6000602082840312156104815761048061031d565b5b600061048f84828501610456565b91505092915050565b600081519050919050565b600082825260208201905092915050565b60005b838110156104d25780820151818401526020810190506104b7565b60008484015250505050565b6000601f19601f8301169050919050565b60006104fa82610498565b61050481856104a3565b93506105148185602086016104b4565b61051d816104de565b840191505092915050565b6000602082019050818103600083015261054281846104ef565b905092915050565b600082905092915050565b7f4e487b7100000000000000000000000000000000000000000000000000000000600052604160045260246000fd5b7f4e487b7100000000000000000000000000000000000000000000000000000000600052602260045260246000fd5b600060028204905060018216806105cb57607f821691505b6020821081036105de576105dd610584565b5b50919050565b60008190508160005260206000209050919050565b60006020601f8301049050919050565b600082821b905092915050565b6000600883026106467fffffffffffffffffffffffffffffffffffffffffffffffffffffffffffffffff82610609565b6106508683610609565b95508019841693508086168417925050509392505050565b6000819050919050565b600061068d610688610683846103d9565b610668565b6103d9565b9050919050565b6000819050919050565b6106a783610672565b6106bb6106b382610694565b848454610616565b825550505050565b600090565b6106d06106c3565b6106db81848461069e565b505050565b5b818110156106ff576106f46000826106c8565b6001810190506106e1565b5050565b601f82111561074457610715816105e4565b61071e846105f9565b8101602085101561072d578190505b610741610739856105f9565b8301826106e0565b50505b505050565b600082821c905092915050565b600061076760001984600802610749565b1980831691505092915050565b60006107808383610756565b9150826002028217905092915050565b61079a838361054a565b67ffffffffffffffff8111156107b3576107b2610555565b5b6107bd82546105b3565b6107c8828285610703565b6000601f8311600181146107f757600084156107e5578287013590505b6107ef8582610774565b865550610857565b601f198416610805866105e4565b60005b8281101561082d57848901358255600182019150602085019450602081019050610808565b8683101561084a5784890135610846601f891682610756565b8355505b6001600288020188555050505b50505050505050565b7f4e487b7100000000000000000000000000000000000000000000000000000000600052601160045260246000fd5b600061089a826103d9565b91507fffffffffffffffffffffffffffffffffffffffffffffffffffffffffffffffff82036108cc576108cb610860565b5b60018201905091905056fea2646970667358221220965860c4964afb75853217f762feb2a1b677197784da5f2ec98f8ec18d05d51764736f6c63430008180033",
  "linkReferences": {},
  "deployedLinkReferences": {}
}