{
  "_format": "hh-sol-artifact-1",
  "contractName": "PasswordVault",
  "sourceName": "contracts/PasswordVault.sol",
  "abi": [
    {
      "anonymous": false,
      "inputs": [
        {
          "indexed": true,
          "internalType": "address",
          "name": "user",
          "type": "address"
        },
        {
          "indexed": false,
          "internalType": "string",
          "name": "service",
          "type": "string"
        },
        {
          "indexed": false,
          "internalType": "uint256",
          "name": "timestamp",
          "type": "uint256"
        },
        {
          "indexed": false,
          "internalType": "uint256",
          "name": "userCount",
          "type": "uint256"
        }
      ],
      "name": "CredentialStored",
      "type": "event"
    },
    {
      "inputs": [],
      "name": "getCredentials",
      "outputs": [
        {
          "components": [
            {
              "internalType": "string",
              "name": "service",
              "type": "string"
            },
            {
              "internalType": "string",
              "name": "username",
              "type": "string"
            },
            {
              "internalType": "string",
              "name": "encryptedPassword",
              "type": "string"
            },
            {
              "internalType": "string[]",
              "name": "shares",
              "type": "string[]"
            }
          ],
          "internalType": "struct PasswordVault.Credential[]",
          "name": "",
          "type": "tuple[]"
        }
      ],
      "stateMutability": "view",
      "type": "function"
    },
    {
      "inputs": [],
      "name": "getMyCredentialCount",
      "outputs": [
        {
          "internalType": "uint256",
          "name": "",
          "type": "uint256"
        }
      ],
      "stateMutability": "view",
      "type": "function"
    },
    {
      "inputs": [],
      "name": "getTotalCredentialCount",
      "outputs": [
        {
          "internalType": "uint256",
          "name": "",
          "type": "uint256"
        }
      ],
      "stateMutability": "view",
      "type": "function"
    },
    {
      "inputs": [
        {
          "internalType": "string",
          "name": "_service",
          "type": "string"
        },
        {
          "internalType": "string",
          "name": "_username",
          "type": "string"
        },
        {
          "internalType": "string",
          "name": "_encryptedPassword",
          "type": "string"
        },
        {
          "internalType": "string[]",
          "name": "_shares",
          "type": "string[]"
        }
      ],
      "name": "storeCredential",
      "outputs": [],
      "stateMutability": "nonpayable",
      "type": "function"
    },
    {
      "inputs": [
        {
          "internalType": "address",
          "name": "",
          "type": "address"
        },
        {
          "internalType": "uint256",
          "name": "",
          "type": "uint256"
        }
      ],
      "name": "userCredentials",
      "outputs": [
        {
          "internalType": "string",
          "name": "service",
          "type": "string"
        },
        {
          "internalType": "string",
          "name": "username",
          "type": "string"
        },
        {
          "internalType": "string",
          "name": "encryptedPassword",
          "type": "string"
        }
      ],
      "stateMutability": "view",
      "type": "function"
    }
  ],
  "bytecode": "0x608060405234801561001057600080fd5b506115ed806100206000396000f3fe608060405234801561001057600080fd5b50600436106100575760003560e01c80631524ee531461005c578063229413381461007a578063462c5a31146100985780639364ace9146100b6578063d3057905146100e8575b600080fd5b610064610104565b6040516100719190610a1c565b60405180910390f35b61008261010e565b60405161008f9190610cc3565b60405180910390f35b6100a0610438565b6040516100ad9190610a1c565b60405180910390f35b6100d060048036038101906100cb9190610d83565b61047f565b6040516100df93929190610e0d565b60405180910390f35b61010260048036038101906100fd9190610f14565b61065e565b005b6000600154905090565b60606000803373ffffffffffffffffffffffffffffffffffffffff1673ffffffffffffffffffffffffffffffffffffffff168152602001908152602001600020805480602002602001604051908101604052809291908181526020016000905b8282101561042f57838290600052602060002090600402016040518060800160405290816000820180546101a19061102c565b80601f01602080910402602001604051908101604052809291908181526020018280546101cd9061102c565b801561021a5780601f106101ef5761010080835404028352916020019161021a565b820191906000526020600020905b8154815290600101906020018083116101fd57829003601f168201915b505050505081526020016001820180546102339061102c565b80601f016020809104026020016040519081016040528092919081815260200182805461025f9061102c565b80156102ac5780601f10610281576101008083540402835291602001916102ac565b820191906000526020600020905b81548152906001019060200180831161028f57829003601f168201915b505050505081526020016002820180546102c59061102c565b80601f01602080910402602001604051908101604052809291908181526020018280546102f19061102c565b801561033e5780601f106103135761010080835404028352916020019161033e565b820191906000526020600020905b81548152906001019060200180831161032157829003601f168201915b5050505050815260200160038201805480602002602001604051908101604052809291908181526020016000905b8282101561041857838290600052602060002001805461038b9061102c565b80601f01602080910402602001604051908101604052809291908181526020018280546103b79061102c565b80156104045780601f106103d957610100808354040283529160200191610404565b820191906000526020600020905b8154815290600101906020018083116103e757829003601f168201915b50505050508152602001906001019061036c565b50505050815250508152602001906001019061016e565b50505050905090565b6000600260003373ffffffffffffffffffffffffffffffffffffffff1673ffffffffffffffffffffffffffffffffffffffff16815260200190815260200160002054905090565b6000602052816000526040600020818154811061049b57600080fd5b9060005260206000209060040201600091509150508060000180546104bf9061102c565b80601f01602080910402602001604051908101604052809291908181526020018280546104eb9061102c565b80156105385780601f1061050d57610100808354040283529160200191610538565b820191906000526020600020905b81548152906001019060200180831161051b57829003601f168201915b50505050509080600101805461054d9061102c565b80601f01602080910402602001604051908101604052809291908181526020018280546105799061102c565b80156105c65780601f1061059b576101008083540402835291602001916105c6565b820191906000526020600020905b8154815290600101906020018083116105a957829003601f168201915b5050505050908060020180546105db9061102c565b80601f01602080910402602001604051908101604052809291908181526020018280546106079061102c565b80156106545780601f1061062957610100808354040283529160200191610654565b820191906000526020600020905b81548152906001019060200180831161063757829003601f168201915b5050505050905083565b6000803373ffffffffffffffffffffffffffffffffffffffff1673ffffffffffffffffffffffffffffffffffffffff16815260200190815260200160002060405180608001604052808a8a8080601f016020809104026020016040519081016040528093929190818152602001838380828437600081840152601f19601f82011690508083019250505050505050815260200188888080601f016020809104026020016040519081016040528093929190818152602001838380828437600081840152601f19601f82011690508083019250505050505050815260200186868080601f016020809104026020016040519081016040528093929190818152602001838380828437600081840152601f19601f8201169050808301925050505050505081526020018484906107929190611240565b815250908060018154018082558091505060019003906000526020600020906004020160009091909190915060008201518160000190816107d39190611401565b5060208201518160010190816107e99190611401565b5060408201518160020190816107ff9190611401565b50606082015181600301908051906020019061081c929190610929565b5050506001600081548092919061083290611502565b9190505550600260003373ffffffffffffffffffffffffffffffffffffffff1673ffffffffffffffffffffffffffffffffffffffff168152602001908152602001600020600081548092919061088790611502565b91905055503373ffffffffffffffffffffffffffffffffffffffff167fa5c5f0b898ac193c5f7183c8c086da859d784a54367484282436b781b0dbcdf5898942600260003373ffffffffffffffffffffffffffffffffffffffff1673ffffffffffffffffffffffffffffffffffffffff168152602001908152602001600020546040516109179493929190611577565b60405180910390a25050505050505050565b828054828255906000526020600020908101928215610971579160200282015b828111156109705782518290816109609190611401565b5091602001919060010190610949565b5b50905061097e9190610982565b5090565b5b808211156109a2576000818161099991906109a6565b50600101610983565b5090565b5080546109b29061102c565b6000825580601f106109c457506109e3565b601f0160209004906000526020600020908101906109e291906109e6565b5b50565b5b808211156109ff5760008160009055506001016109e7565b5090565b6000819050919050565b610a1681610a03565b82525050565b6000602082019050610a316000830184610a0d565b92915050565b600081519050919050565b600082825260208201905092915050565b6000819050602082019050919050565b600081519050919050565b600082825260208201905092915050565b60005b83811015610a9d578082015181840152602081019050610a82565b60008484015250505050565b6000601f19601f8301169050919050565b6000610ac582610a63565b610acf8185610a6e565b9350610adf818560208601610a7f565b610ae881610aa9565b840191505092915050565b600081519050919050565b600082825260208201905092915050565b6000819050602082019050919050565b6000610b2b8383610aba565b905092915050565b6000602082019050919050565b6000610b4b82610af3565b610b558185610afe565b935083602082028501610b6785610b0f565b8060005b85811015610ba35784840389528151610b848582610b1f565b9450610b8f83610b33565b925060208a01995050600181019050610b6b565b50829750879550505050505092915050565b60006080830160008301518482036000860152610bd28282610aba565b91505060208301518482036020860152610bec8282610aba565b91505060408301518482036040860152610c068282610aba565b91505060608301518482036060860152610c208282610b40565b9150508091505092915050565b6000610c398383610bb5565b905092915050565b6000602082019050919050565b6000610c5982610a37565b610c638185610a42565b935083602082028501610c7585610a53565b8060005b85811015610cb15784840389528151610c928582610c2d565b9450610c9d83610c41565b925060208a01995050600181019050610c79565b50829750879550505050505092915050565b60006020820190508181036000830152610cdd8184610c4e565b905092915050565b6000604051905090565b600080fd5b600080fd5b600073ffffffffffffffffffffffffffffffffffffffff82169050919050565b6000610d2482610cf9565b9050919050565b610d3481610d19565b8114610d3f57600080fd5b50565b600081359050610d5181610d2b565b92915050565b610d6081610a03565b8114610d6b57600080fd5b50565b600081359050610d7d81610d57565b92915050565b60008060408385031215610d9a57610d99610cef565b5b6000610da885828601610d42565b9250506020610db985828601610d6e565b9150509250929050565b600082825260208201905092915050565b6000610ddf82610a63565b610de98185610dc3565b9350610df9818560208601610a7f565b610e0281610aa9565b840191505092915050565b60006060820190508181036000830152610e278186610dd4565b90508181036020830152610e3b8185610dd4565b90508181036040830152610e4f8184610dd4565b9050949350505050565b600080fd5b600080fd5b600080fd5b60008083601f840112610e7e57610e7d610e59565b5b8235905067ffffffffffffffff811115610e9b57610e9a610e5e565b5b602083019150836001820283011115610eb757610eb6610e63565b5b9250929050565b60008083601f840112610ed457610ed3610e59565b5b8235905067ffffffffffffffff811115610ef157610ef0610e5e565b5b602083019150836020820283011115610f0d57610f0c610e63565b5b9250929050565b6000806000806000806000806080898b031215610f3457610f33610cef565b5b600089013567ffffffffffffffff811115610f5257610f51610cf4565b5b610f5e8b828c01610e68565b9850985050602089013567ffffffffffffffff811115610f8157610f80610cf4565b5b610f8d8b828c01610e68565b9650965050604089013567ffffffffffffffff811115610fb057610faf610cf4565b5b610fbc8b828c01610e68565b9450945050606089013567ffffffffffffffff811115610fdf57610fde610cf4565b5b610feb8b828c01610ebe565b92509250509295985092959890939650565b7f4e487b7100000000000000000000000000000000000000000000000000000000600052602260045260246000fd5b6000600282049050600182168061104457607f821691505b60208210810361105757611056610ffd565b5b50919050565b7f4e487b7100000000000000000000000000000000000000000000000000000000600052604160045260246000fd5b61109582610aa9565b810181811067ffffffffffffffff821117156110b4576110b361105d565b5b80604052505050565b60006110c7610ce5565b90506110d3828261108c565b919050565b600067ffffffffffffffff8211156110f3576110f261105d565b5b602082029050602081019050919050565b600080fd5b600067ffffffffffffffff8211156111245761112361105d565b5b61112d82610aa9565b9050602081019050919050565b82818337600083830152505050565b600061115c61115784611109565b6110bd565b90508281526020810184848401111561117857611177611104565b5b61118384828561113a565b509392505050565b600082601f8301126111a05761119f610e59565b5b81356111b0848260208601611149565b91505092915050565b60006111cc6111c7846110d8565b6110bd565b905080838252602082019050602084028301858111156111ef576111ee610e63565b5b835b8181101561123657803567ffffffffffffffff81111561121457611213610e59565b5b808601611221898261118b565b855260208501945050506020810190506111f1565b5050509392505050565b600061124d3684846111b9565b905092915050565b60008190508160005260206000209050919050565b60006020601f8301049050919050565b600082821b905092915050565b6000600883026112b77fffffffffffffffffffffffffffffffffffffffffffffffffffffffffffffffff8261127a565b6112c1868361127a565b95508019841693508086168417925050509392505050565b6000819050919050565b60006112fe6112f96112f484610a03565b6112d9565b610a03565b9050919050565b6000819050919050565b611318836112e3565b61132c61132482611305565b848454611287565b825550505050565b600090565b611341611334565b61134c81848461130f565b505050565b5b8181101561137057611365600082611339565b600181019050611352565b5050565b601f8211156113b55761138681611255565b61138f8461126a565b8101602085101561139e578190505b6113b26113aa8561126a565b830182611351565b50505b505050565b600082821c905092915050565b60006113d8600019846008026113ba565b1980831691505092915050565b60006113f183836113c7565b9150826002028217905092915050565b61140a82610a63565b67ffffffffffffffff8111156114235761142261105d565b5b61142d825461102c565b611438828285611374565b600060209050601f83116001811461146b5760008415611459578287015190505b61146385826113e5565b8655506114cb565b601f19841661147986611255565b60005b828110156114a15784890151825560018201915060208501945060208101905061147c565b868310156114be57848901516114ba601f8916826113c7565b8355505b6001600288020188555050505b505050505050565b7f4e487b7100000000000000000000000000000000000000000000000000000000600052601160045260246000fd5b600061150d82610a03565b91507fffffffffffffffffffffffffffffffffffffffffffffffffffffffffffffffff820361153f5761153e6114d3565b5b600182019050919050565b60006115568385610dc3565b935061156383858461113a565b61156c83610aa9565b840190509392505050565b6000606082019050818103600083015261159281868861154a565b90506115a16020830185610a0d565b6115ae6040830184610a0d565b9594505050505056fea2646970667358221220035da65cef3e92775ad4b6ab8ac4b56e605f3db25229ba81f65729e5d9a6e6bc64736f6c63430008180033",
  "linkReferences": {},
  "deployedLinkReferences": {}
}